{
  "_format": "hh-sol-artifact-1",
  "contractName": "Ballot",
  "sourceName": "contracts/Ballot.sol",
  "abi": [
    {
      "inputs": [],
      "stateMutability": "nonpayable",
      "type": "constructor"
    },
    {
      "inputs": [],
      "name": "chairperson",
      "outputs": [
        {
          "internalType": "address",
          "name": "",
          "type": "address"
        }
      ],
      "stateMutability": "view",
      "type": "function"
    },
    {
      "inputs": [
        {
          "internalType": "address",
          "name": "to",
          "type": "address"
        }
      ],
      "name": "delegate",
      "outputs": [],
      "stateMutability": "nonpayable",
      "type": "function"
    },
    {
      "inputs": [
        {
          "internalType": "address",
          "name": "voter",
          "type": "address"
        }
      ],
      "name": "giveRightToVote",
      "outputs": [],
      "stateMutability": "nonpayable",
      "type": "function"
    },
    {
      "inputs": [
        {
          "internalType": "uint256",
          "name": "",
          "type": "uint256"
        }
      ],
      "name": "proposals",
      "outputs": [
        {
          "internalType": "string",
          "name": "name",
          "type": "string"
        },
        {
          "internalType": "string",
          "name": "image",
          "type": "string"
        },
        {
          "internalType": "uint256",
          "name": "voteCount",
          "type": "uint256"
        }
      ],
      "stateMutability": "view",
      "type": "function"
    },
    {
      "inputs": [],
      "name": "viewAllCadidates",
      "outputs": [
        {
          "components": [
            {
              "internalType": "string",
              "name": "name",
              "type": "string"
            },
            {
              "internalType": "string",
              "name": "image",
              "type": "string"
            },
            {
              "internalType": "uint256",
              "name": "voteCount",
              "type": "uint256"
            }
          ],
          "internalType": "struct Ballot.Proposal[]",
          "name": "",
          "type": "tuple[]"
        }
      ],
      "stateMutability": "view",
      "type": "function"
    },
    {
      "inputs": [
        {
          "internalType": "uint256",
          "name": "proposal",
          "type": "uint256"
        }
      ],
      "name": "vote",
      "outputs": [],
      "stateMutability": "nonpayable",
      "type": "function"
    },
    {
      "inputs": [
        {
          "internalType": "address",
          "name": "",
          "type": "address"
        }
      ],
      "name": "voters",
      "outputs": [
        {
          "internalType": "uint256",
          "name": "weight",
          "type": "uint256"
        },
        {
          "internalType": "bool",
          "name": "voted",
          "type": "bool"
        },
        {
          "internalType": "address",
          "name": "delegate",
          "type": "address"
        },
        {
          "internalType": "uint256",
          "name": "vote",
          "type": "uint256"
        }
      ],
      "stateMutability": "view",
      "type": "function"
    },
    {
      "inputs": [],
      "name": "winnerName",
      "outputs": [
        {
          "internalType": "string",
          "name": "winnerName_",
          "type": "string"
        }
      ],
      "stateMutability": "view",
      "type": "function"
    },
    {
      "inputs": [],
      "name": "winningProposal",
      "outputs": [
        {
          "internalType": "uint256",
          "name": "winningProposal_",
          "type": "uint256"
        }
      ],
      "stateMutability": "view",
      "type": "function"
    }
  ],
  "bytecode": "0x608060405260405180604001604052806040518060400160405280600381526020017f564c54000000000000000000000000000000000000000000000000000000000081525081526020016040518060400160405280600281526020017f47450000000000000000000000000000000000000000000000000000000000008152508152506003906002620000959291906200040f565b50604051806040016040528060405180608001604052806058815260200162001cfa60589139815260200160405180608001604052806058815260200162001cfa605891398152506004906002620000ef9291906200040f565b50348015620000fd57600080fd5b50336000806101000a81548173ffffffffffffffffffffffffffffffffffffffff021916908373ffffffffffffffffffffffffffffffffffffffff16021790555060018060008060009054906101000a900473ffffffffffffffffffffffffffffffffffffffff1673ffffffffffffffffffffffffffffffffffffffff1673ffffffffffffffffffffffffffffffffffffffff1681526020019081526020016000206000018190555060005b60038054905081101562000408576002604051806060016040528060038481548110620001ff577f4e487b7100000000000000000000000000000000000000000000000000000000600052603260045260246000fd5b90600052602060002001805462000216906200059e565b80601f016020809104026020016040519081016040528092919081815260200182805462000244906200059e565b8015620002955780601f10620002695761010080835404028352916020019162000295565b820191906000526020600020905b8154815290600101906020018083116200027757829003601f168201915b5050505050815260200160048481548110620002da577f4e487b7100000000000000000000000000000000000000000000000000000000600052603260045260246000fd5b906000526020600020018054620002f1906200059e565b80601f01602080910402602001604051908101604052809291908181526020018280546200031f906200059e565b8015620003705780601f10620003445761010080835404028352916020019162000370565b820191906000526020600020905b8154815290600101906020018083116200035257829003601f168201915b50505050508152602001600081525090806001815401808255809150506001900390600052602060002090600302016000909190919091506000820151816000019080519060200190620003c692919062000476565b506020820151816001019080519060200190620003e592919062000476565b506040820151816002015550508080620003ff90620005d4565b915050620001a9565b5062000680565b82805482825590600052602060002090810192821562000463579160200282015b82811115620004625782518290805190602001906200045192919062000476565b509160200191906001019062000430565b5b50905062000472919062000507565b5090565b82805462000484906200059e565b90600052602060002090601f016020900481019282620004a85760008555620004f4565b82601f10620004c357805160ff1916838001178555620004f4565b82800160010185558215620004f4579182015b82811115620004f3578251825591602001919060010190620004d6565b5b5090506200050391906200052f565b5090565b5b808211156200052b57600081816200052191906200054e565b5060010162000508565b5090565b5b808211156200054a57600081600090555060010162000530565b5090565b5080546200055c906200059e565b6000825580601f1062000570575062000591565b601f0160209004906000526020600020908101906200059091906200052f565b5b50565b6000819050919050565b60006002820490506001821680620005b757607f821691505b60208210811415620005ce57620005cd62000651565b5b50919050565b6000620005e18262000594565b91507fffffffffffffffffffffffffffffffffffffffffffffffffffffffffffffffff82141562000617576200061662000622565b5b600182019050919050565b7f4e487b7100000000000000000000000000000000000000000000000000000000600052601160045260246000fd5b7f4e487b7100000000000000000000000000000000000000000000000000000000600052602260045260246000fd5b61166a80620006906000396000f3fe608060405234801561001057600080fd5b50600436106100935760003560e01c80635c19a95c116100665780635c19a95c14610122578063609ff1bd1461013e5780639e7b8d611461015c578063a3ec138d14610178578063e2ba53f0146101ab57610093565b80630121b93f14610098578063013cf08b146100b45780632e4176cf146100e65780633c26174614610104575b600080fd5b6100b260048036038101906100ad9190610e10565b6101c9565b005b6100ce60048036038101906100c99190610e10565b610336565b6040516100dd9392919061111b565b60405180910390f35b6100ee610480565b6040516100fb91906110bc565b60405180910390f35b61010c6104a4565b60405161011991906110d7565b60405180910390f35b61013c60048036038101906101379190610de7565b610631565b005b6101466109f3565b6040516101539190611240565b60405180910390f35b61017660048036038101906101719190610de7565b610ac7565b005b610192600480360381019061018d9190610de7565b610c7e565b6040516101a2949392919061125b565b60405180910390f35b6101b3610cdb565b6040516101c091906110f9565b60405180910390f35b6000600160003373ffffffffffffffffffffffffffffffffffffffff1673ffffffffffffffffffffffffffffffffffffffff1681526020019081526020016000209050600081600001541415610254576040517f08c379a000000000000000000000000000000000000000000000000000000000815260040161024b90611160565b60405180910390fd5b8060010160009054906101000a900460ff16156102a6576040517f08c379a000000000000000000000000000000000000000000000000000000000815260040161029d90611180565b60405180910390fd5b60018160010160006101000a81548160ff02191690831515021790555081816002018190555080600001546002838154811061030b577f4e487b7100000000000000000000000000000000000000000000000000000000600052603260045260246000fd5b9060005260206000209060030201600201600082825461032b9190611306565b925050819055505050565b6002818154811061034657600080fd5b9060005260206000209060030201600091509050806000018054610369906113d7565b80601f0160208091040260200160405190810160405280929190818152602001828054610395906113d7565b80156103e25780601f106103b7576101008083540402835291602001916103e2565b820191906000526020600020905b8154815290600101906020018083116103c557829003601f168201915b5050505050908060010180546103f7906113d7565b80601f0160208091040260200160405190810160405280929190818152602001828054610423906113d7565b80156104705780601f1061044557610100808354040283529160200191610470565b820191906000526020600020905b81548152906001019060200180831161045357829003601f168201915b5050505050908060020154905083565b60008054906101000a900473ffffffffffffffffffffffffffffffffffffffff1681565b60606002805480602002602001604051908101604052809291908181526020016000905b8282101561062857838290600052602060002090600302016040518060600160405290816000820180546104fb906113d7565b80601f0160208091040260200160405190810160405280929190818152602001828054610527906113d7565b80156105745780601f1061054957610100808354040283529160200191610574565b820191906000526020600020905b81548152906001019060200180831161055757829003601f168201915b5050505050815260200160018201805461058d906113d7565b80601f01602080910402602001604051908101604052809291908181526020018280546105b9906113d7565b80156106065780601f106105db57610100808354040283529160200191610606565b820191906000526020600020905b8154815290600101906020018083116105e957829003601f168201915b50505050508152602001600282015481525050815260200190600101906104c8565b50505050905090565b6000600160003373ffffffffffffffffffffffffffffffffffffffff1673ffffffffffffffffffffffffffffffffffffffff16815260200190815260200160002090508060010160009054906101000a900460ff16156106c6576040517f08c379a00000000000000000000000000000000000000000000000000000000081526004016106bd906111a0565b60405180910390fd5b3373ffffffffffffffffffffffffffffffffffffffff168273ffffffffffffffffffffffffffffffffffffffff161415610735576040517f08c379a000000000000000000000000000000000000000000000000000000000815260040161072c90611220565b60405180910390fd5b5b600073ffffffffffffffffffffffffffffffffffffffff16600160008473ffffffffffffffffffffffffffffffffffffffff1673ffffffffffffffffffffffffffffffffffffffff16815260200190815260200160002060010160019054906101000a900473ffffffffffffffffffffffffffffffffffffffff1673ffffffffffffffffffffffffffffffffffffffff16146108a557600160008373ffffffffffffffffffffffffffffffffffffffff1673ffffffffffffffffffffffffffffffffffffffff16815260200190815260200160002060010160019054906101000a900473ffffffffffffffffffffffffffffffffffffffff1691503373ffffffffffffffffffffffffffffffffffffffff168273ffffffffffffffffffffffffffffffffffffffff1614156108a0576040517f08c379a0000000000000000000000000000000000000000000000000000000008152600401610897906111e0565b60405180910390fd5b610736565b60018160010160006101000a81548160ff021916908315150217905550818160010160016101000a81548173ffffffffffffffffffffffffffffffffffffffff021916908373ffffffffffffffffffffffffffffffffffffffff1602179055506000600160008473ffffffffffffffffffffffffffffffffffffffff1673ffffffffffffffffffffffffffffffffffffffff16815260200190815260200160002090508060010160009054906101000a900460ff16156109ce57816000015460028260020154815481106109a2577f4e487b7100000000000000000000000000000000000000000000000000000000600052603260045260246000fd5b906000526020600020906003020160020160008282546109c29190611306565b925050819055506109ee565b81600001548160000160008282546109e69190611306565b925050819055505b505050565b6000806000905060005b600280549050811015610ac2578160028281548110610a45577f4e487b7100000000000000000000000000000000000000000000000000000000600052603260045260246000fd5b9060005260206000209060030201600201541115610aaf5760028181548110610a97577f4e487b7100000000000000000000000000000000000000000000000000000000600052603260045260246000fd5b90600052602060002090600302016002015491508092505b8080610aba90611409565b9150506109fd565b505090565b60008054906101000a900473ffffffffffffffffffffffffffffffffffffffff1673ffffffffffffffffffffffffffffffffffffffff163373ffffffffffffffffffffffffffffffffffffffff1614610b55576040517f08c379a0000000000000000000000000000000000000000000000000000000008152600401610b4c906111c0565b60405180910390fd5b600160008273ffffffffffffffffffffffffffffffffffffffff1673ffffffffffffffffffffffffffffffffffffffff16815260200190815260200160002060010160009054906101000a900460ff1615610be5576040517f08c379a0000000000000000000000000000000000000000000000000000000008152600401610bdc90611200565b60405180910390fd5b6000600160008373ffffffffffffffffffffffffffffffffffffffff1673ffffffffffffffffffffffffffffffffffffffff1681526020019081526020016000206000015414610c3457600080fd5b60018060008373ffffffffffffffffffffffffffffffffffffffff1673ffffffffffffffffffffffffffffffffffffffff1681526020019081526020016000206000018190555050565b60016020528060005260406000206000915090508060000154908060010160009054906101000a900460ff16908060010160019054906101000a900473ffffffffffffffffffffffffffffffffffffffff16908060020154905084565b60606002610ce76109f3565b81548110610d1e577f4e487b7100000000000000000000000000000000000000000000000000000000600052603260045260246000fd5b90600052602060002090600302016000018054610d3a906113d7565b80601f0160208091040260200160405190810160405280929190818152602001828054610d66906113d7565b8015610db35780601f10610d8857610100808354040283529160200191610db3565b820191906000526020600020905b815481529060010190602001808311610d9657829003601f168201915b5050505050905090565b600081359050610dcc81611606565b92915050565b600081359050610de18161161d565b92915050565b600060208284031215610df957600080fd5b6000610e0784828501610dbd565b91505092915050565b600060208284031215610e2257600080fd5b6000610e3084828501610dd2565b91505092915050565b6000610e458383611047565b905092915050565b610e568161135c565b82525050565b6000610e67826112b0565b610e7181856112d3565b935083602082028501610e83856112a0565b8060005b85811015610ebf5784840389528151610ea08582610e39565b9450610eab836112c6565b925060208a01995050600181019050610e87565b50829750879550505050505092915050565b610eda8161136e565b82525050565b6000610eeb826112bb565b610ef581856112e4565b9350610f058185602086016113a4565b610f0e816114b0565b840191505092915050565b6000610f24826112bb565b610f2e81856112f5565b9350610f3e8185602086016113a4565b610f47816114b0565b840191505092915050565b6000610f5f6014836112f5565b9150610f6a826114c1565b602082019050919050565b6000610f82600e836112f5565b9150610f8d826114ea565b602082019050919050565b6000610fa56012836112f5565b9150610fb082611513565b602082019050919050565b6000610fc86028836112f5565b9150610fd38261153c565b604082019050919050565b6000610feb6019836112f5565b9150610ff68261158b565b602082019050919050565b600061100e6018836112f5565b9150611019826115b4565b602082019050919050565b6000611031601e836112f5565b915061103c826115dd565b602082019050919050565b600060608301600083015184820360008601526110648282610ee0565b9150506020830151848203602086015261107e8282610ee0565b9150506040830151611093604086018261109e565b508091505092915050565b6110a78161139a565b82525050565b6110b68161139a565b82525050565b60006020820190506110d16000830184610e4d565b92915050565b600060208201905081810360008301526110f18184610e5c565b905092915050565b600060208201905081810360008301526111138184610f19565b905092915050565b600060608201905081810360008301526111358186610f19565b905081810360208301526111498185610f19565b905061115860408301846110ad565b949350505050565b6000602082019050818103600083015261117981610f52565b9050919050565b6000602082019050818103600083015261119981610f75565b9050919050565b600060208201905081810360008301526111b981610f98565b9050919050565b600060208201905081810360008301526111d981610fbb565b9050919050565b600060208201905081810360008301526111f981610fde565b9050919050565b6000602082019050818103600083015261121981611001565b9050919050565b6000602082019050818103600083015261123981611024565b9050919050565b600060208201905061125560008301846110ad565b92915050565b600060808201905061127060008301876110ad565b61127d6020830186610ed1565b61128a6040830185610e4d565b61129760608301846110ad565b95945050505050565b6000819050602082019050919050565b600081519050919050565b600081519050919050565b6000602082019050919050565b600082825260208201905092915050565b600082825260208201905092915050565b600082825260208201905092915050565b60006113118261139a565b915061131c8361139a565b9250827fffffffffffffffffffffffffffffffffffffffffffffffffffffffffffffffff0382111561135157611350611452565b5b828201905092915050565b60006113678261137a565b9050919050565b60008115159050919050565b600073ffffffffffffffffffffffffffffffffffffffff82169050919050565b6000819050919050565b60005b838110156113c25780820151818401526020810190506113a7565b838111156113d1576000848401525b50505050565b600060028204905060018216806113ef57607f821691505b6020821081141561140357611402611481565b5b50919050565b60006114148261139a565b91507fffffffffffffffffffffffffffffffffffffffffffffffffffffffffffffffff82141561144757611446611452565b5b600182019050919050565b7f4e487b7100000000000000000000000000000000000000000000000000000000600052601160045260246000fd5b7f4e487b7100000000000000000000000000000000000000000000000000000000600052602260045260246000fd5b6000601f19601f8301169050919050565b7f486173206e6f20726967687420746f20766f7465000000000000000000000000600082015250565b7f416c726561647920766f7465642e000000000000000000000000000000000000600082015250565b7f596f7520616c726561647920766f7465642e0000000000000000000000000000600082015250565b7f4f6e6c79206368616972706572736f6e2063616e20676976652072696768742060008201527f746f20766f74652e000000000000000000000000000000000000000000000000602082015250565b7f466f756e64206c6f6f7020696e2064656c65676174696f6e2e00000000000000600082015250565b7f54686520766f74657220616c726561647920766f7465642e0000000000000000600082015250565b7f53656c662d64656c65676174696f6e20697320646973616c6c6f7765642e0000600082015250565b61160f8161135c565b811461161a57600080fd5b50565b6116268161139a565b811461163157600080fd5b5056fea264697066735822122098732221480e095de549c9bf3f46728431c7c91534a7a212297f9fbc1d2e6a8164736f6c6343000804003368747470733a2f2f697066732e696f2f697066732f516d634a5445566359773645573778794651326435384b4144454a444d665738586872364b596d4c58445a59364a3f66696c656e616d653d626a706c6f676f2e706e67",
  "linkReferences": {},
  "deployedLinkReferences": {}
}